{
    "contractName": "SimpleStorage",
    "abi": [
        {
            "inputs": [
                {
                    "internalType": "uint256",
                    "name": "input",
                    "type": "uint256"
                }
            ],
            "name": "store",
            "outputs": [],
            "stateMutability": "nonpayable",
            "type": "function"
        },
        {
            "inputs": [
                {
                    "internalType": "uint256",
                    "name": "input",
                    "type": "uint256"
                }
            ],
            "name": "add",
            "outputs": [],
            "stateMutability": "nonpayable",
            "type": "function"
        },
        {
            "inputs": [],
            "name": "get",
            "outputs": [
                {
                    "internalType": "uint256",
                    "name": "",
                    "type": "uint256"
                }
            ],
            "stateMutability": "view",
            "type": "function",
            "constant": true
        }
    ],
    "bytecode": "0x608060405234801561001057600080fd5b5061020a806100206000396000f3fe608060405234801561001057600080fd5b50600436106100415760003560e01c80631003e2d2146100465780636057361d146100625780636d4ce63c1461007e575b600080fd5b610060600480360381019061005b91906100db565b61009c565b005b61007c600480360381019061007791906100db565b6100b3565b005b6100866100bd565b6040516100939190610113565b60405180910390f35b806000546100aa919061012e565b60008190555050565b8060008190555050565b60008054905090565b6000813590506100d5816101bd565b92915050565b6000602082840312156100ed57600080fd5b60006100fb848285016100c6565b91505092915050565b61010d81610184565b82525050565b60006020820190506101286000830184610104565b92915050565b600061013982610184565b915061014483610184565b9250827fffffffffffffffffffffffffffffffffffffffffffffffffffffffffffffffff038211156101795761017861018e565b5b828201905092915050565b6000819050919050565b7f4e487b7100000000000000000000000000000000000000000000000000000000600052601160045260246000fd5b6101c681610184565b81146101d157600080fd5b5056fea2646970667358221220ec2da35bf8d3b0c222b8960dd19294b4675de36b497da0c986370e59b8461a0364736f6c63430008000033",
    "immutableReferences": {},
    "source": "// SPDX-License-Identifier: Unlicensed\n\npragma solidity ^0.8.0;\n\ncontract SimpleStorage {\n    uint data;\n\n    function store(uint input) external {\n        data = input;\n    }\n\n    function add(uint input) external {\n        data = data + input;\n    }\n\n    function get() external view returns (uint){\n        return data;\n    }\n}\n",
    "sourcePath": "/home/arewageek/dev/web3/truffle/firsts/firstContract/contracts/SimpleStorage.sol",
    "compiler": {
        "name": "solc",
        "version": "0.8.0+commit.c7dfd78e.Emscripten.clang"
    },
    "schemaVersion": "3.4.14",
    "updatedAt": "2023-09-29T22:12:22.324Z",
    "networkType": "ethereum",
    "devdoc": {
        "kind": "dev",
        "methods": {},
        "version": 1
    },
    "userdoc": {
        "kind": "user",
        "methods": {},
        "version": 1
    }
}